:100000000C9434000C9449000C9449000C94490061
:100010000C9449000C9449000C9449000C9449003C
:100020000C9449000C9449000C9449000C9449002C
:100030000C9449000C9449000C9449000C9449001C
:100040000C9449000C9449000C9449000C9449000C
:100050000C9449000C9449000C9449000C944900FC
:100060000C9449000C94490011241FBECFEFD8E036
:10007000DEBFCDBF11E0A0E0B1E0E8E4F2E002C0F5
:1000800005900D92A034B107D9F70E9463000C943B
:1000900022010C9400008AB180648AB984B5836817
:1000A00084BD85B5836085BD17BC0895FC0107C07C
:1000B0009091C00095FFFCCF31968093C60080815F
:1000C0008111F6CF0895CF93DF9300D000D01F9217
:1000D000CDB7DEB71092C50087E68093C40088E1F3
:1000E0008093C10086E08093C2000E944B0090E0A4
:1000F0008091C0008823E4F7292F30E08091C6006A
:10010000E1E0F0E0EC0FFD1FE20FF31F80838D3084
:1001100011F09F5FEDCFE1E0F0E0EC0FFD1FE20F8B
:10012000F31F108260E071E0CE0101960E94110180
:10013000892B39F48FEF87BD83E091E00E94560050
:10014000D6CF63E171E0CE0101960E941101892BA7
:1001500031F417BC87E191E00E945600C8CFCE0170
:1001600001960E94F300853610F62FEF829FC001A2
:10017000112464E670E00E94CB0067BD88E291E044
:100180000E945600CE0101960E9456008BE391E03A
:100190000E945600ACCF97FB072E16F4009407D0B0
:1001A00077FD09D00E94DF0007FC05D03EF4909552
:1001B00081959F4F0895709561957F4F0895AA1B73
:1001C000BB1B51E107C0AA1FBB1FA617B70710F042
:1001D000A61BB70B881F991F5A95A9F78095909574
:1001E000BC01CD010895FC0188279927E89421914D
:1001F0002032E9F3293010F02E30C8F32B3241F0D1
:100200002D3239F4689404C00E941A01820F911DA6
:10021000219120532A30C0F31EF4909581959F4F71
:100220000895FB01DC018D91019080190110D9F333
:10023000990B08957AE0979F902D879F802D910DBF
:0802400011240895F894FFCF8A
:100248004F4E004C4544206973206E6F77204F4E07
:100258000D0A004F4646004C4544206973206E6FD6
:1002680077204F46460D0A004272696768746E65CA
:1002780073732073657420746F2000250D0A0000C5
:00000001FF
