S00B00005131312E7372656366
S11300000C9434000C943E000C943E000C943E007E
S11300100C943E000C943E000C943E000C943E0064
S11300200C943E000C943E000C943E000C943E0054
S11300300C943E000C943E000C943E000C943E0044
S11300400C943E000C943E000C943E000C943E0034
S11300500C943E000C943E000C943E000C943E0024
S11300600C943E000C943E0011241FBECFEFD8E048
S1130070DEBFCDBF0E947B000C94BA000C9400003C
S113008080E480937C0086E880937A0008958770EA
S1130090ECE7F0E09081987F892B8083EAE7F0E039
S11300A080818064808380917A0086FDFCCF80917A
S11300B0780090917900089584B1826084B980E2D7
S11300C09EE49093870080938600E1E8F0E082E864
S11300D0808382E1808308959C01A8EEB3E00E94AE
S11300E0AB002FEF33E040E050E00E948900C901EB
S11300F088519C4F08950E9440000E945C0080E05B
S11301000E9447000E946C009093890080938800AD
S1130110F6CFA1E21A2EAA1BBB1BFD010DC0AA1F1C
S1130120BB1FEE1FFF1FA217B307E407F50720F05C
S1130130A21BB30BE40BF50B661F771F881F991FD7
S11301401A9469F760957095809590959B01AC0120
S1130150BD01CF010895A29FB001B39FC001A39F29
S1130160700D811D1124911DB29F700D811D1124EC
S10B0170911D0895F894FFCFDE
S9030000FC
