:100000000C9434000C943E000C943E000C943E0082
:100010000C943E000C943E000C943E000C943E0068
:100020000C943E000C943E000C943E000C943E0058
:100030000C943E000C943E000C943E000C943E0048
:100040000C943E000C943E000C943E000C943E0038
:100050000C943E000C943E000C943E000C943E0028
:100060000C943E000C943E0011241FBECFEFD8E04C
:10007000DEBFCDBF0E9470000C947C000C94000089
:1000800085B1886085B985B18F7D85B92FEF83E211
:1000900094EF215080409040E1F700C000000895A7
:1000A00085B1877F85B985B18F7D85B92FEF8BE7C6
:1000B00092E9215080409040E1F700C0000008958F
:1000C00085B1877F85B985B1806285B92FEF83E2DD
:1000D00094EF215080409040E1F700C00000089567
:1000E00084B1886284B90E9440000E9450000E943E
:0C00F00060000E945000F7CFF894FFCF92
:00000001FF
