S0110000554152545F4C4544312E7372656372
S11300000C9434000C943E000C943E000C943E007E
S11300100C943E000C943E000C943E000C943E0064
S11300200C943E000C943E000C943E000C943E0054
S11300300C943E000C943E000C943E000C943E0044
S11300400C943E000C943E000C943E000C943E0034
S11300500C943E000C943E000C943E000C943E0024
S11300600C943E000C943E0011241FBECFEFD8E048
S1130070DEBFCDBF0E9440000C9476000C940000BB
S113008084B1886084B91092C50087E68093C40067
S1130090E1ECF0E0808180618083E2ECF0E080813B
S11300A08F7D80838081866080838091C0008823D7
S11300B0E4F78091C6008133C1F785B1886085B9C2
S11300C02FEF89E698E1215080409040E1F700C08D
S11300D0000085B1877F85B92FEF89E698E121502B
S11300E080409040E1F700C00000DFCFF894FFCFDC
S9030000FC
