S00A000051352E7372656394
S11300000C9434000C943E000C943E000C943E007E
S11300100C943E000C943E000C943E000C943E0064
S11300200C943E000C943E000C943E000C943E0054
S11300300C943E000C943E000C943E000C943E0044
S11300400C943E000C943E000C943E000C943E0034
S11300500C943E000C943E000C943E000C943E0024
S11300600C943E000C943E0011241FBECFEFD8E048
S1130070DEBFCDBF0E9484000C949A000C94000053
S113008085B1846085B985B1877F85B985B18F7E57
S113009085B9089585B18B7F85B985B1886085B9A7
S11300A085B18F7E85B9089585B18B7F85B985B17A
S11300B0877F85B985B1806185B90895BC0116BC77
S11300C094B59E7F94BD94B5926094BD95B59560AA
S11300D095BD95B59D7F95BD99EF97BD40E050E0E6
S11300E00FC0A99BFECF95B3926095BB2F5F3F4F86
S11300F002C020E030E02F3331059CF34F5F5F4FA7
S113010046175707B4F3089584B18C6184B90E94EB
S113011040008AE090E00E945E000E944A0083E072
S113012090E00E945E000E9454008AE090E00E94E9
S10B01305E00EDCFF894FFCF4F
S9030000FC
