S0110000554152545F54585F312E737265633C
S11300000C9434000C9449000C9449000C9449005D
S11300100C9449000C9449000C9449000C94490038
S11300200C9449000C9449000C9449000C94490028
S11300300C9449000C9449000C9449000C94490018
S11300400C9449000C9449000C9449000C94490008
S11300500C9449000C9449000C9449000C944900F8
S11300600C9449000C94490011241FBECFEFD8E032
S1130070DEBFCDBF11E0A0E0B1E0E0EEF0E002C0F1
S113008005900D92A030B107D9F70E944B000C9453
S11300906E000C9400001092C50087E68093C400A3
S11300A0E2ECF0E08081866080838081877C8083BD
S11300B0E1ECF0E080818860808381E48093C60075
S11300C08091C00085FFFCCF2FEF83ED90E321509A
S11300D080409040E1F700C00000EFCFF894FFCFDC
S9030000FC
