S00B00005131322E7372656365
S11300000C9434000C9449000C9449000C9449005D
S11300100C9449000C9449000C9449000C94490038
S11300200C9449000C9449000C9449000C94490028
S11300300C9449000C9449000C9449000C94490018
S11300400C9449000C9449000C9449000C94490008
S11300500C9449000C9449000C9449000C944900F8
S11300600C9449000C94490011241FBECFEFD8E032
S1130070DEBFCDBF11E0A0E0B1E0E4E2F4E002C0F5
S113008005900D92AA30B107D9F70E94B4010C94DF
S113009010020C94000085B1886085B985E08A95CA
S11300A0F1F7000085B1877F85B987EC90E001976F
S11300B0F1F700C0000008959BB1937C9BB983FFC6
S11300C003C09BB194609BB982FF03C09BB198604D
S11300D09BB981FF03C09BB190619BB980FF03C0B2
S11300E08BB180628BB90E944B000895CF93C82FC7
S11300F0613021F485B1806185B903C085B18F7EFB
S113010085B98C2F82958F700E945C008C2F8F7024
S11301100E945C00CF910895CF93C82F60E00E94A5
S11301207600C150C23030F48FE39FE10197F1F7BC
S113013000C00000CF91089561E00E947600089508
S1130140882311F090E401C090E0862F8F70890F0E
S113015080680E948C000895CF93DF93EC0103C064
S113016021960E949C0088818111FACFDF91CF9162
S1130170089581E00E948C00089584B1806184B95F
S113018084B1886084B98AB18C638AB92FEF89EF0E
S113019090E0215080409040E1F700C0000085B11C
S11301A08F7E85B985B1877F85B983E00E945C0025
S11301B08FE19EE40197F1F700C0000083E00E9404
S11301C05C0087E592E00197F1F700C0000083E04E
S11301D00E945C0087E592E00197F1F700C00000FF
S11301E082E00E945C0087E592E00197F1F700C08D
S11301F0000088E20E948C0088E00E948C0081E06C
S11302000E948C0086E00E948C008CE00E948C008E
S11302100895CF92DF92EF92FF926B017C018AE006
S1130220C816D104E104F10460F0C701B6012AE064
S113023030E040E050E00E94EE01CA01B9010E94A2
S11302400901C701B6012AE030E040E050E00E9415
S1130250EE0180E3860F0E949C00FF90EF90DF90F8
S1130260CF900895CF92DF92EF92FF926B017C01C1
S11302700E94B90060E080E00E94A00080E091E06C
S11302800E94AC0060E081E00E94A000C11481EEF5
S1130290D80685EFE80685E0F80618F480E30E94A6
S11302A09C0080E8C81686E9D80688E9E806F104C7
S11302B018F480E30E949C0080E4C81682E4D80607
S11302C08FE0E806F10418F480E30E949C0080EAC1
S11302D0C81686E8D80681E0E806F10418F480E33D
S11302E00E949C0080E1C81687E2D806E104F1046C
S11302F018F480E30E949C0088EEC81683E0D806B8
S1130300E104F10418F480E30E949C0084E6C8161A
S1130310D104E104F10418F480E30E949C008AE013
S1130320C816D104E104F10418F480E30E949C008F
S1130330C701B6010E940901FF90EF90DF90CF90B2
S1130340089580E090E007C0EFE3FCE93197F1F70E
S113035000C000000A964A9BF7CF803D974010F0FA
S113036081E0089580E008958AB18B7F8AB98BB1CA
S113037084608BB90E94BD0060E070E0CB010E94F4
S11303803201C12CD12C76014A99FECF2FEF89EF8F
S113039090E0215080409040E1F700C000004A996D
S11303A0F3CF0E94A10181110FC02FEFC21629ECD7
S11303B0D2062AE9E2062BE3F20648F48FEFC81AC4
S11303C0D80AE80AF80A03C0C12CD12C7601C70167
S11303D0B6010E9432014A9BFECFD6CFA1E21A2E6B
S11303E0AA1BBB1BFD010DC0AA1FBB1FEE1FFF1FD5
S11303F0A217B307E407F50720F0A21BB30BE40B25
S1130400F50B661F771F881F991F1A9469F760956B
S11304107095809590959B01AC01BD01CF01089525
S1070420F894FFCF7A
S10D0424436F756E7465723A0000B0
S9030000FC
