S00B00005131342E7372656363
S11300000C9434000C943E000C943E000C943E007E
S11300100C943E000C943E000C943E000C943E0064
S11300200C943E000C943E000C943E000C943E0054
S11300300C943E000C943E000C943E000C943E0044
S11300400C943E000C943E000C943E000C943E0034
S11300500C943E000C943E000C943E000C943E0024
S11300600C943E000C943E0011241FBECFEFD8E048
S1130070DEBFCDBF0E9470000C947B000C94000086
S1130080ECE7F0E0808180648083EAE7F0E080813F
S11300908668808308958770ECE7F0E09081987F0C
S11300A0892B8083EAE7F0E08081806480838091FB
S11300B07A0086FDFCCF80917800909179000895B4
S11300C08AB180648AB984B5836884BD85B5836048
S11300D085BD17BC0895969587959695879508953F
S11300E00E9440000E94600080E00E944B000E9439
S10D00F06B0087BDF9CFF894FFCF31
S9030000FC
