:100000000C9434000C943E000C943E000C943E0082
:100010000C943E000C943E000C943E000C943E0068
:100020000C943E000C943E000C943E000C943E0058
:100030000C943E000C943E000C943E000C943E0048
:100040000C943E000C943E000C943E000C943E0038
:100050000C943E000C943E000C943E000C943E0028
:100060000C943E000C943E0011241FBECFEFD8E04C
:10007000DEBFCDBF0E9464000C946E000C940000A3
:1000800016BC87EC87BD84B58E7F84BD84B5826045
:1000900084BD85B5897F85BD85B5816085BD40E01E
:1000A00050E0BA0109C0A99BFECF85B3826085BB31
:1000B0004F5F5F4F6F4F7F4F403888E3580781E0B5
:1000C0006807710584F3089584B1806284B995B19D
:1000D00080E2892785B90E944000F9CFF894FFCFCC
:00000001FF
