:100000000C9434000C9449000C9449000C94490061
:100010000C9449000C9449000C9449000C9449003C
:100020000C9449000C9449000C9449000C9449002C
:100030000C9449000C9449000C9449000C9449001C
:100040000C9449000C9449000C9449000C9449000C
:100050000C9449000C9449000C9449000C944900FC
:100060000C9449000C94490011241FBECFEFD8E036
:10007000DEBFCDBF11E0A0E0B1E0E2E3F9E002C0F5
:1000800005900D92A431B107D9F70E944B000C9452
:1000900097040C940000CF93DF9300D000D000D0E1
:1000A000CDB7DEB70E94A40184B18C6284B984B15B
:1000B0008F7E84B98CB581658CBD8CB5817F8CBDFC
:1000C00085B18B7F85B980ED8EBD0DB407FEFDCF68
:1000D0008EB51EBC0DB407FEFDCF8EB50E94C401C7
:1000E0002FEF33ED80E3215030408040E1F700C036
:1000F000000085B1846085B985B18B7F85B984E7BF
:100100008EBD0DB407FEFDCF8EB587E28EBD0DB45A
:1001100007FEFDCF8EB585B1846085B985B18B7F33
:1001200085B98AEF8EBD0DB407FEFDCF8EB51EBC1E
:100130000DB407FEFDCF4EB51EBC0DB407FEFDCFBE
:100140008EB51EBC0DB407FEFDCF2EB550E060E0AD
:1001500070E0032E3CE0440F551F661F771F3A9551
:10016000D1F7302D90E0A0E0B0E0880F991FAA1FD2
:10017000BB1F880F991FAA1FBB1F880F991FAA1F9B
:10018000BB1F880F991FAA1FBB1F842B952BA62B63
:10019000B72B22952F70BC01CD01622B25B12460B5
:1001A00025B925B12B7F25B928E82EBD0DB407FE52
:1001B000FDCF2EB51EBC0DB407FEFDCF5EB51EBC37
:1001C0000DB407FEFDCF6EB41EBC0DB407FEFDCF0F
:1001D0004EB51EBC0DB407FEFDCFEEB5E9831EBCC7
:1001E0000DB407FEFDCF3EB51EBC0DB407FEFDCF1E
:1001F0000EB525B1246025B9712C762C6624652AAC
:10020000F981EF2FF0E0FE2FEE27E42BFE83ED8344
:1002100010E0102F0027032B0E9433036B017C0199
:1002200020E030E040E858E30E94C1034B015C014C
:10023000B30180E090E00E94330320E030E040E82A
:100240005AE30E94C10369837A838B839C832D8147
:100250003E81B90180E090E00E9433032B013C0114
:100260009B01AC0169817A818B819C810E94C103D1
:100270009B01AC01C501B4010E941E024B015C014F
:1002800020E030E040E057E3C701B6010E94C1031F
:100290006B017C0120E030E040E059E3C301B20192
:1002A0000E94C1032B013C01B801110F880B990B6F
:1002B0000E943503A30192010E94C1039B01AC017E
:1002C000C701B6010E941E029B01AC01C501B40129
:1002D0000E941F0220E030E040EA55E40E948B02B9
:1002E00020E030E048EC52E40E94C1030E94FD028D
:1002F000CB0164E670E00E942E049A8389838C010E
:10030000072E000C880B990B0E9401028EE20E94BE
:10031000B0010A3011051CF480E30E94B001E981AC
:10032000FA81BF01FF0F880B990B0E9401028AE03E
:100330000E94B001FFEF23ED30E3F1502040304048
:10034000E1F700C00000BCCE1092C50087E68093A4
:10035000C40088E08093C10086E08093C2000895C5
:100360009091C00095FFFCCF8093C6000895CF9375
:10037000DF93EC0103C021960E94B00188818111B6
:10038000FACFDF91CF910895CF93DF93CDB7DEB74A
:1003900066970FB6F894DEBF0FBECDBF91E1E3E0E4
:1003A000F1E0DE01119601900D929A95E1F7982FF8
:1003B00092959F70E1E0F0E0EC0FFD1FE90FF11D59
:1003C00090819A8B8F70E1E0F0E0EC0FFD1FE80F59
:1003D000F11D80818B8B8DE08C8B8AE08D8B1E8A4A
:1003E00080E091E00E94B701CE0142960E94B701E1
:1003F00066960FB6F894DEBF0FBECDBFDF91CF91EA
:100400000895CF93DF93CDB7DEB72C970FB6F8944E
:10041000DEBF0FBECDBF2AE0AE014F5F5F4F0E942F
:100420005604CE0101960E94B7012C960FB6F8949F
:10043000DEBF0FBECDBFDF91CF9108955058BB27CF
:10044000AA270E9436020C9487030E94790338F091
:100450000E94800320F039F49F3F19F426F40C9495
:1004600076030EF4E095E7FB0C947003E92F0E94ED
:10047000980358F3BA17620773078407950720F0AB
:1004800079F4A6F50C94BA030EF4E0950B2EBA2F6E
:10049000A02D0B01B90190010C01CA01A00111248A
:1004A000FF27591B99F0593F50F4503E68F11A1636
:1004B000F040A22F232F342F4427585FF3CF4695C7
:1004C00037952795A795F0405395C9F77EF41F16E9
:1004D000BA0B620B730B840BBAF09150A1F0FF0FB3
:1004E000BB1F661F771F881FC2F70EC0BA0F621F9F
:1004F000731F841F48F4879577956795B795F7958F
:100500009E3F08F0B0CF9395880F08F09927EE0F23
:100510009795879508950E949F020C9487030E94E7
:10052000800358F00E94790340F029F45F3F29F0DE
:100530000C94700351110C94BB030C9476030E942D
:10054000980368F39923B1F3552391F3951B550B49
:10055000BB27AA2762177307840738F09F5F5F4F96
:10056000220F331F441FAA1FA9F335D00E2E3AF0D5
:10057000E0E832D091505040E695001CCAF72BD0ED
:10058000FE2F29D0660F771F881FBB1F261737073E
:100590004807AB07B0E809F0BB0B802DBF01FF2770
:1005A00093585F4F3AF09E3F510578F00C947003DA
:1005B0000C94BB035F3FE4F3983ED4F386957795A4
:1005C0006795B795F7959F5FC9F7880F911D969529
:1005D000879597F90895E1E0660F771F881FBB1F85
:1005E000621773078407BA0720F0621B730B840B32
:1005F000BA0BEE1F88F7E09508950E9404036894F3
:10060000B1110C94BB0308950E94A00388F09F577A
:1006100098F0B92F9927B751B0F0E1F0660F771F26
:10062000881F991F1AF0BA95C9F714C0B13091F01C
:100630000E94BA03B1E008950C94BA03672F782F93
:100640008827B85F39F0B93FCCF3869577956795E1
:10065000B395D9F73EF490958095709561957F4F4D
:100660008F4F9F4F0895E89409C097FB3EF49095F3
:100670008095709561957F4F8F4F9F4F9923A9F07B
:10068000F92F96E9BB279395F6958795779567950A
:10069000B795F111F8CFFAF4BB0F11F460FF1BC04E
:1006A0006F5F7F4F8F4F9F4F16C0882311F096E9E1
:1006B00011C0772321F09EE8872F762F05C066238F
:1006C00071F096E8862F70E060E02AF09A95660F48
:1006D000771F881FDAF7880F9695879597F9089501
:1006E00097F99F6780E870E060E008959FEF80ECE5
:1006F000089500240A941616170618060906089588
:1007000000240A9412161306140605060895092EED
:100710000394000C11F4882352F0BB0F40F4BF2B5C
:1007200011F460FF04C06F5F7F4F8F4F9F4F08959C
:1007300057FD9058440F551F59F05F3F71F0479592
:10074000880F97FB991F61F09F3F79F08795089577
:10075000121613061406551FF2CF4695F1DF08C096
:10076000161617061806991FF1CF869571056105B3
:1007700008940895E894BB2766277727CB0197F95B
:1007800008950E94D4030C9487030E94790338F0E3
:100790000E94800320F0952311F00C9470030C94B8
:1007A000760311240C94BB030E94980370F3959F69
:1007B000C1F3950F50E0551F629FF001729FBB2758
:1007C000F00DB11D639FAA27F00DB11DAA1F649FF4
:1007D0006627B00DA11D661F829F2227B00DA11DA7
:1007E000621F739FB00DA11D621F839FA00D611D2D
:1007F000221F749F3327A00D611D231F849F600D4E
:10080000211D822F762F6A2F11249F5750409AF076
:10081000F1F088234AF0EE0FFF1FBB1F661F771F02
:10082000881F91505040A9F79E3F510580F00C94CD
:1008300070030C94BB035F3FE4F3983ED4F38695BA
:1008400077956795B795F795E7959F5FC1F7FE2B6D
:10085000880F911D9695879597F9089597FB072E18
:1008600016F4009407D077FD09D00E94420407FCDB
:1008700005D03EF4909581959F4F089570956195B0
:100880007F4F0895AA1BBB1B51E107C0AA1FBB1FC6
:10089000A617B70710F0A61BB70B881F991F5A950C
:1008A000A9F780959095BC01CD010895BB272A300A
:1008B00051F4992342F4BDE290958095709561952D
:1008C0007F4F8F4F9F4F0C946604BB27FA01A62FD2
:1008D0006217710581059105330B30FB66F0AA277D
:1008E000660F771F881F991FAA1FA21710F0A21B5F
:1008F00063953850A9F7A05DAA3308F0A95DA193CC
:1009000036F7B111B1931082CA010C948704DC014F
:10091000FC01672F71917723E1F7329704C07C9136
:100920006D9370836291AE17BF07C8F30895F89472
:02093000FFCFF7
:10093200307800303132333435363738394142433A
:0409420044454600E2
:00000001FF
