:100000000C9434000C943E000C943E000C943E0082
:100010000C943E000C943E000C943E000C943E0068
:100020000C943E000C943E000C943E000C943E0058
:100030000C943E000C943E000C943E000C943E0048
:100040000C943E000C943E000C943E000C943E0038
:100050000C943E000C943E000C943E000C943E0028
:100060000C943E000C943E0011241FBECFEFD8E04C
:10007000DEBFCDBF0E9440000C9458000C940000DD
:100080008AB180648AB984B5816084BD84B58D7F6E
:1000900084BD84B5806884BD84B58F7B84BD85B5FF
:1000A0008B7F85BD85B5836085BD8DE487BDFFCF22
:0400B000F894FFCFF2
:00000001FF
