S01800007377697463685F696E746572666163652E737265636A
S11300000C9434000C943E000C943E000C943E007E
S11300100C943E000C943E000C943E000C943E0064
S11300200C943E000C943E000C943E000C943E0054
S11300300C943E000C943E000C943E000C943E0044
S11300400C943E000C943E000C943E000C943E0034
S11300500C943E000C943E000C943E000C943E0024
S11300600C943E000C943E0011241FBECFEFD8E048
S1130070DEBFCDBF0E9440000C9453000C940000DE
S113008084B1806284B98AB18B7F8AB989B1847062
S113009089B9882321F085B1806285B9F7CF85B10C
S10D00A08F7D85B9F3CFF894FFCFEC
S9030000FC
