:100000000C9434000C943E000C943E000C943E0082
:100010000C943E000C943E000C943E000C943E0068
:100020000C943E000C943E000C943E000C943E0058
:100030000C943E000C943E000C943E000C943E0048
:100040000C943E000C943E000C943E000C943E0038
:100050000C943E000C943E000C943E000C943E0028
:100060000C943E000C943E0011241FBECFEFD8E04C
:10007000DEBFCDBF0E9442000C946E000C940000C5
:1000800085B9089584B18F6084B98AB18B7F8AB9AC
:100090008BB184608BB915B8C0E0D0E04A99FECF2F
:1000A0002196C031D10514F0C0E0D0E0CE010E940D
:1000B00040002FEF89EF90E0215080409040E1F721
:1000C00000C000004A9BFECF2FEF89EF90E0215047
:1000D00080409040E1F700C00000E0CFF894FFCFEF
:00000001FF
