:100000000C9434000C943E000C943E000C943E0082
:100010000C943E000C943E000C943E000C943E0068
:100020000C943E000C943E000C943E000C943E0058
:100030000C943E000C943E000C943E000C943E0048
:100040000C943E000C943E000C943E000C943E0038
:100050000C943E000C943E000C943E000C943E0028
:100060000C943E000C943E0011241FBECFEFD8E04C
:10007000DEBFCDBF0E9455000C946C000C940000B4
:1000800085B1806285B985B1877F85B9089585B1CD
:100090008F7D85B985B1886085B9089585B18F7DDB
:1000A00085B985B1877F85B9089584B1886284B99F
:1000B0008AB18B7E8AB94A9B05C04C9903C00E94C5
:1000C0004700F9CF4C9B05C04A9903C00E944000ED
:0C00D000F2CF0E944E00EFCFF894FFCF5B
:00000001FF
