:100000000C9434000C9449000C9449000C94490061
:100010000C9449000C9449000C9449000C9449003C
:100020000C9449000C9449000C9449000C9449002C
:100030000C9449000C9449000C9449000C9449001C
:100040000C9449000C9449000C9449000C9449000C
:100050000C9449000C9449000C9449000C944900FC
:100060000C9449000C94490011241FBECFEFD8E036
:10007000DEBFCDBF11E0A0E0B1E0E0E3F1E002C0FF
:1000800005900D92AA30B107D9F70E944B000C944D
:1000900096000C940000CF93DF93CDB7DEB72A977C
:1000A0000FB6F894DEBF0FBECDBF87E0E0E0F1E011
:1000B000DE01119601900D928A95E1F7FE013896C6
:1000C00083E0DF011D928A95E9F71092C50087E66B
:1000D0008093C400E2ECF0E08081866080838081C0
:1000E000877C8083E1ECF0E080818860808320E081
:1000F00030E00FC0E1E0F0E0EC0FFD1FE20FF31F76
:1001000080818093C6008091C00085FFFCCF2F5F67
:100110003F4F2630310574F3BFEF23ED80E3B1503C
:1001200020408040E1F700C00000E1CFF894FFCF0D
:0A01300048454C4C4F0A0000000047
:00000001FF
